:020000040000FA
:0400000007EF00F016
:100008006E82CAED23F051EF23F0000E01011B6F41
:10001800000E1A6FE7C02CF1E8C02DF1E9C02EF1EF
:10002800EAC02FF12FAF16D0000E1B6F010E1A6F0A
:100038002CC180F02DC181F02EC182F02FC183F038
:1000480082EC25F080C02CF181C02DF182C02EF108
:1000580083C02FF1000E0101336F000E326FD2C141
:100068001FF1D3C120F11A511B11D8A402D0D6A573
:1000780013D01A511B11D8A404D0000E056F2B0EF3
:1000880003D0000E056F2D0E046F04C100F2324B31
:10009800332B1F07D8A020072CC180F02DC181F079
:1000A8002EC182F02FC183F0FDEC1CF00001800509
:1000B8008111D8A453D0BF0EEC6FFF0EED6FEB513A
:1000C800EE6FEF6BEC51EE27ED51EF23EF5106E1A8
:1000D8001A0EEE5DD8B002D0010E01D0000E01015B
:1000E800066F076B06510711D8B410D0000E3225E1
:1000F8000001806F020E010133210001816FD70ECC
:10010800826FFF0E836FFCEC22F00FD0000E3225B9
:100118000001806F020E010133210001816FDF0EA3
:10012800826FFF0E836FFCEC22F00101FD0E1F278A
:10013800FF0E2023E5C090F0E6C091F0000E00010C
:10014800926F020E936F1FC194F020C195F0A9EC35
:1001580020F090C0E5F091C0E6F012002CC180F0CC
:100168002DC181F02EC182F02FC183F0FDEC1CF06F
:10017800000180518111D8A43BD0BF0EEC6FFF0E57
:10018800ED6FEB51EE6FEF6BEC51EE27ED51EF2376
:10019800EF5106E11A0EEE5DD8B002D0010E01D083
:1001A800000E0101086F096B08510911D8B410D06D
:1001B800000E32250001806F020E0101332100017B
:1001C800816FDB0E826FFF0E836FFCEC22F0ADD7E0
:1001D800000E32250001806F020E0101332100015B
:1001E800816FE30E826FFF0E836FFCEC22F09DD7C8
:1001F800000E0101346F000E356F800E366F3F0E12
:10020800376F000E316F000E306F2CC180F02DC19A
:1002180081F02EC182F02FC183F0000E0001846F9F
:10022800000E856F000E866F000E876F3FEC21F081
:100238000001D8A01ED079D034C1B8F035C1B9F0CA
:1002480036C1BAF037C1BBF0000EBC6F000EBD6FEF
:10025800200EBE6F410EBF6FE4EC0DF0B8C034F154
:10026800B9C035F1BAC036F1BBC037F10101304B26
:10027800312B2CC1D9F02DC1DAF02EC1DBF02FC102
:10028800DCF0000E0001BC6F000EBD6F200EBE6FCB
:10029800410EBF6F34C1B8F035C1B9F036C1BAF0FC
:1002A80037C1BBF0E4EC0DF0B8C0DDF0B9C0DEF04A
:1002B800BAC0DFF0BBC0E0F094EC1CF00001D8A09D
:1002C8001FD0BAD734C194F035C195F036C196F035
:1002D80037C197F0000E986F000E996F200E9A6F35
:1002E800410E9B6F44EC14F094C034F195C035F185
:1002F80096C036F197C037F101013007D8A0310711
:100308002CC1D9F02DC1DAF02EC1DBF02FC1DCF001
:1003180034C1DDF035C1DEF036C1DFF037C1E0F0C1
:1003280094EC1CF00001D8A0CDD7EBC086F0876B09
:10033800A3EC23F0000186510101216F21C11EF1B8
:10034800670E2119D8A419D0D451D511D8A404D036
:10035800000ED56F010ED46FD5BF05D0D55108E179
:10036800D405D8B005D0000E1D6F060E1C6F08D03E
:10037800D4C11CF1D5C11DF103D0D5AFF9D7F3D73E
:10038800670E2119D8A428D031AF06D0FC0E305DF5
:10039800FF0E3159D8A01DD0FF0E0001EC6FFF0EE3
:1003A800ED6F1CC1EEF01DC1EFF0EC51EE27ED51E1
:1003B800EF23010130510001EE5DEF51800AF06F2B
:1003C80001013151800A0001F059D8A002D0660E0F
:1003D80001D0650E01011E6F1CC114F11DC115F17C
:1003E800670E2119D8A405D0660E1E19D8B431AFEE
:1003F80002D0144B152B660E1E19D8A416D031AF97
:100408000CD0000E346F000E356F800E366F3F0E25
:10041800376F000E316F000E306F670E2119D8B498
:1004280004D03051142731511523000E2B6F000EC4
:100438002A6F2CC122F12DC123F12EC124F12FC125
:1004480025F134C100F135C101F136C102F137C1DE
:1004580003F17CD022C194F023C195F024C196F019
:1004680025C197F034C198F035C199F036C19AF09A
:1004780037C19BF044EC14F094C0ADF095C0AEF0D9
:1004880096C0AFF097C0B0F0FDEC17F0ADC026F104
:10049800AEC027F1AFC028F1B0C029F126C1D1F014
:1004A80027C1D2F028C1D3F029C1D4F0EFEC1EF057
:1004B800D1C018F1D2C019F122C1D1F023C1D2F0B4
:1004C80024C1D3F025C1D4F034C1BCF035C1BDF08E
:1004D80036C1BEF037C1BFF026C1B8F027C1B9F0A8
:1004E80028C1BAF029C1BBF0E4EC0DF0B8C0D5F0D2
:1004F800B9C0D6F0BAC0D7F0BBC0D8F0F1EC23F041
:10050800D1C022F1D2C023F1D3C024F1D4C025F147
:1005180034C194F035C195F036C196F037C197F0E3
:10052800000E0001986F000E996F200E9A6F410E11
:100538009B6F44EC14F094C034F195C035F196C02B
:1005480036F197C037F101012A4B2B2B14512A5D44
:100558002B51800A0001EC6F01011551800A00013E
:10056800EC59D8A077D734C1B8F035C1B9F036C145
:10057800BAF037C1BBF0000EBC6F000EBD6FA00E05
:10058800BE6F400EBF6FE4EC0DF0B8C026F1B9C0E5
:1005980027F1BAC028F1BBC029F122C1D9F023C183
:1005A800DAF024C1DBF025C1DCF026C1DDF027C17B
:1005B800DEF028C1DFF029C1E0F094EC1CF0000166
:1005C800D8B003D0000E010119D022C180F023C198
:1005D80081F024C182F025C183F026C184F027C1AF
:1005E80085F028C186F029C187F03FEC21F0000191
:1005F800D8A00BD0010118B108D0000E266F000E4C
:10060800276F000E286F000E296F2CC194F02DC1A2
:1006180095F02EC196F02FC197F026C198F027C10A
:1006280099F028C19AF029C19BF037EC11F094C0D9
:1006380022F195C023F196C024F197C025F100C19D
:1006480034F101C135F102C136F103C137F1650E4C
:1006580001011E19D8B405D030C116F131C117F106
:1006680004D0000E176F000E166F000E136F000EE9
:10067800126F000E116F000E106F000E2B6F000E20
:100688002A6FC7D022C194F023C195F024C196F0F7
:1006980025C197F034C198F035C199F036C19AF068
:1006A80037C19BF044EC14F094C0ADF095C0AEF0A7
:1006B80096C0AFF097C0B0F0FDEC17F0ADC026F1D2
:1006C800AEC027F1AFC028F1B0C029F126C1D1F0E2
:1006D80027C1D2F028C1D3F029C1D4F0EFEC1EF025
:1006E800D1C018F1D2C019F10101D6B90CD01851F6
:1006F8001911D8A408D0670E2119D8B417AF03D0A0
:10070800104B112B39D012511311D8B417AF22D076
:10071800000E3225D96E020E3321DA6E2E0EDF6EF0
:10072800324B332B1F07D8A02007000E136F010E82
:10073800126F10D0000E3225D96E020E3321DA6EF8
:10074800300EDF6E324B332B1F07D8A0200710075F
:10075800D8A0110710511111D8A4ECD7000E3225DA
:10076800D96E020E3321DA6E1851300FDF6E324B1C
:10077800332B1F07D8A0200722C1D1F023C1D2F004
:1007880024C1D3F025C1D4F034C1BCF035C1BDF0CB
:1007980036C1BEF037C1BFF026C1B8F027C1B9F0E5
:1007A80028C1BAF029C1BBF0E4EC0DF0B8C0D5F00F
:1007B800B9C0D6F0BAC0D7F0BBC0D8F0F1EC23F07E
:1007C800D1C022F1D2C023F1D3C024F1D4C025F185
:1007D80034C194F035C195F036C196F037C197F021
:1007E800000E0001986F000E996F200E9A6F410E4F
:1007F8009B6F44EC14F094C034F195C035F196C069
:1008080036F197C037F101011607D8A017072A4B10
:100818002B2B14512A5D2B51800A0001EC6F01012A
:100828001551800A0001EC59D8B009D0010133BF35
:1008380029D7335104E14B0E325DD8A023D70101EB
:1008480012511311D8B4D6A90AD0000E3225D96E88
:10085800020E3321DA6E2E0EDF6E324B332B000E72
:100868003225D96E020E3321DA6E000EDF6E650E68
:100878001E19D8A45FD4000E2B6F4F0E2A6F000EDE
:100888002A25D96E020E2B21DA6E000EDF6E000EBD
:100898001B6F000E1A6F31AF08D0000E1B6F010ED0
:1008A8001A6F306D311FD8B0312B000E1D6F020E3C
:1008B8001C6F2DD02A07D8A02B07000E2A25D96E29
:1008C800020E2B21DA6E30C180F031C181F0000EAA
:1008D8000001836F0A0E826F08EC22F0000180513C
:1008E800300FDF6E30C180F031C181F0000E836FB0
:1008F8000A0E826F85EC21F080C030F181C031F1A1
:1009080001011C07D8A01D071F07D8A020073051D8
:100918003111D8A4CFD71DBF05D01D51CBE11C057F
:10092800D8B0C8D72A07D8A02B071A511B11D8A4AA
:1009380004D0000E0B6F2B0E03D0000E0B6F2D0E84
:100948000A6F000E2A25D96E020E2B21DA6E0AC113
:10095800DFFF1F07D8A020072A07D8A02B07BF0E44
:100968000001EC6FFF0EED6FEB51EE6FEF6BEC518A
:10097800EE27ED51EF23EF5106E11A0EEE5DD8B0E8
:1009880002D0010E01D0000E01010E6F0F6B0E5147
:100998000F11D8A404D0000E0D6F650E03D0000E01
:1009A8000D6F450E0C6F000E2A25D96E020E2B21F5
:1009B800DA6E0CC1DFFF1F07D8A02007000E322512
:1009C8000001806F020E010133210001816F000ECA
:1009D80001012A250001826F020E01012B2100016D
:1009E800836FFCEC22F09EEF00F061EC26F051ECF6
:1009F80026F0A6EC26F08CEC26F0000ED56ED59CE1
:100A0800D59AD598D596D594D582D580000EB16E55
:100A1800B190B192B188B18A000EA06E000EA16E9D
:100A2800A082A192D09E000EF26EF288F28AF28E17
:100A3800F28C000EF16EF18CF18AF188000EF06EE6
:100A4800F086F088000E9D6E000E9E6E000E9F6E62
:100A5800000EA26E000E816E9D8AD1EC22F0010E6E
:100A68000001886F000E37EC24F09480C8EC25F064
:100A7800040081A6B7EC24F0000E0001816FC80EB7
:100A8800806FDEEC25F0000EF9EC20F0ADC0B8F078
:100A9800AEC0B9F0AFC0BAF0B0C0BBF0000E0001F4
:100AA800BC6F000EBD6FA00EBE6F410EBF6FE4ECB1
:100AB8000DF0B8C0CCF1B9C0CDF1BAC0CEF1BBC011
:100AC800CFF1010EF9EC20F0ADC0B8F0AEC0B9F02E
:100AD800AFC0BAF0B0C0BBF0000E0001BC6F000E92
:100AE800BD6FA00EBE6F410EBF6FE4EC0DF0B8C035
:100AF800C8F1B9C0C9F1BAC0CAF1BBC0CBF1020E86
:100B0800F9EC20F0ADC0B8F0AEC0B9F0AFC0BAF0A3
:100B1800B0C0BBF0000E0001BC6F000EBD6FC80E68
:100B2800BE6F420EBF6FE4EC0DF0B8C0C4F1B9C09F
:100B3800C5F1BAC0C6F1BBC0C7F1020E6C186D1082
:100B4800D8A424D2000E0001D96F000EDA6F700EFF
:100B5800DB6F420EDC6FC8C1DDF0C9C1DEF0CAC16F
:100B6800DFF0CBC1E0F094EC1CF00001D8B0FCD071
:100B7800C4C1D1F0C5C1D2F0C6C1D3F0C7C1D4F049
:100B8800CCC1D5F0CDC1D6F0CEC1D7F0CFC1D8F009
:100B9800F1EC23F0D1C0B4F1D2C0B5F1D3C0B6F1B5
:100BA800D4C0B7F1000E0001D96F000EDA6F000E45
:100BB800DB6F000EDC6FB4C1DDF0B5C1DEF0B6C18D
:100BC800DFF0B7C1E0F094EC1CF00001D8B07CD0A5
:100BD80070EC26F0010E0101DB6F000E0001BC6F06
:100BE800000EBD6FC80EBE6F420EBF6FB4C1B8F025
:100BF800B5C1B9F0B6C1BAF0B7C1BBF0E4EC0DF0BD
:100C0800B8C094F0B9C095F0BAC096F0BBC097F0E0
:100C1800000E0001986F000E996F200E9A6F410E1A
:100C28009B6F44EC14F094C0BCF195C0BDF196C024
:100C3800BEF197C0BFF1BCC1D9F0BDC1DAF0BEC1E9
:100C4800DBF0BFC1DCF0000E0001DD6F000EDE6FCF
:100C5800C80EDF6F410EE06F94EC1CF00001D8B0B5
:100C680009D0000E0101BC6F000EBD6FC80EBE6F2B
:100C7800410EBF6F000E0001D96F000EDA6FC80E6B
:100C8800DB6F420EDC6FBCC1DDF0BDC1DEF0BEC162
:100C9800DFF0BFC1E0F094EC1CF00001D8B009D03F
:100CA800000E0101BC6F000EBD6FC80EBE6F420E74
:100CB800BF6FBCC1DBF0BDC1DCF0BEC1DDF0BFC1A0
:100CC800DEF030EC1EF062D1C4C1D9F0C5C1DAF053
:100CD800C6C1DBF0C7C1DCF059C086F05AC087F046
:100CE800000E87BFFF0E886F896F010E7FEC19F029
:100CF80086C0D5F087C0D6F088C0D7F089C0D8F0B4
:100D0800CCC1D1F0CDC1D2F0CEC1D3F0CFC1D4F097
:100D1800F1EC23F0D1C0DDF0D2C0DEF0D3C0DFF0BB
:100D2800D4C0E0F094EC1CF00001D8B02FD1010E33
:100D38000101DC6F000EDB6F8294000E0001DB6F97
:100D4800000EDC6F000EDD6F000EDE6F30EC1EF063
:100D5800000E0001DB6F000EDC6F480EDD6F420EE7
:100D6800DE6FC8EC21F012D1C8C1D9F0C9C1DAF0E0
:100D7800CAC1DBF0CBC1DCF0000EDD6F000EDE6F08
:100D8800200EDF6F420EE06F94EC1CF00001D8B02B
:100D9800FDD0000E0101DB6F8294000E0001DB6FB5
:100DA800000EDC6F000EDD6F000EDE6F30EC1EF003
:100DB800CCC1D1F0CDC1D2F0CEC1D3F0CFC1D4F0E7
:100DC800C4C1D5F0C5C1D6F0C6C1D7F0C7C1D8F0E7
:100DD800F1EC23F0D1C0B8F1D2C0B9F1D3C0BAF167
:100DE800D4C0BBF1000E0001D96F000EDA6F000EFF
:100DF800DB6F000EDC6FB8C1DDF0B9C1DEF0BAC13F
:100E0800DFF0BBC1E0F094EC1CF00001D8B076D064
:100E1800010E0101DC6F000E0001BC6F000EBD6FFA
:100E2800000EBE6F400EBF6FB8C1B8F0B9C1B9F0BF
:100E3800BAC1BAF0BBC1BBF0E4EC0DF0B8C0D1F058
:100E4800B9C0D2F0BAC0D3F0BBC0D4F0EFEC1EF0FA
:100E5800D1C05FF0D2C060F060BE0AD0605004E13B
:100E6800150E5F5CD8A004D0000E606E140E0BD077
:100E780060BE06D0605009E10A0E5F5CD8B005D0AC
:100E8800000E606E0A0E5F6E16D0000E0001D96F5C
:100E9800000EDA6F500EDB6F420EDC6FCCC1DDF056
:100EA800CDC1DEF0CEC1DFF0CFC1E0F094EC1CF094
:100EB8000001D8A0D9D75FC080F060C081F0000ED3
:100EC8000001836F050E826FF3EC25F0000180C0EE
:100ED80086F081C087F0000E87BFFF0E886F896F8C
:100EE800010E7FEC19F086C0DBF087C0DCF088C00B
:100EF800DDF089C0DEF0C8EC21F048D0CCC198F014
:100F0800CDC199F0CEC19AF0CFC19BF059C086F0FF
:100F18005AC087F0000E87BFFF0E886F896F010ED9
:100F28007FEC19F086C094F087C095F088C096F0E1
:100F380089C097F037EC11F094C0D9F095C0DAF079
:100F480096C0DBF097C0DCF0C4C1DDF0C5C1DEF0AF
:100F5800C6C1DFF0C7C1E0F094EC1CF00001D8B0C6
:100F680015D0000E606E000E5F6E000E0101DB6F83
:100F7800000EDC6F8294000E0001DB6F000EDC6F48
:100F8800000EDD6F000EDE6F30EC1EF0D8C1B2F13E
:100F9800D9C1B3F1B2C186F0B3C187F00001000E28
:100FA80087BFFF0E886F896F010E7FEC19F086C02E
:100FB80094F087C095F088C096F089C097F0000E2D
:100FC8000001986F000E996FE00E9A6F400E9B6FAC
:100FD80044EC14F094C0C0F195C0C1F196C0C2F1C0
:100FE80097C0C3F1000E0001816FC80E806FDEEC60
:100FF80025F0AFEC0BF00101DC51D8B40ED0DB5179
:10100800D8B40BD0E70E566F010E576FF70E586F16
:10101800FF0E596F7AEC23F032D0DC51D8A40ED0F1
:10102800DB51D8A40BD0E70E566F010E576FEB0EAD
:10103800586FFF0E596F7AEC23F021D0DC51D8B4E9
:101048000ED0DB51D8A40BD0E70E566F010E576FA8
:10105800EF0E586FFF0E596F7AEC23F010D0DC5169
:10106800D8A40DD0DB51D8B40AD0E70E566F010EC4
:10107800576FF30E586FFF0E596F7AEC23F001018A
:10108800DA51D8B4F5D4720E566F010E576F260E8A
:10109800586FFF0E596FC4C15AF1C5C15BF1C6C183
:1010A8005CF1C7C15DF1CCC15EF1CDC15FF1CEC1CC
:1010B80060F1CFC161F1C8C162F1C9C163F1CAC1B0
:1010C80064F1CBC165F17AEC23F0720E0001816FF7
:1010D800010E826F07EC26F0720E0101566F010EA9
:1010E800576F4A0E586FFF0E596F500E5A6F020E07
:1010F8005B6FE7C15CF15D6BE9C15EF15F6B7AEC38
:1011080023F0720E0001816F010E826F07EC26F04A
:10111800720E0101566F010E576FFB0E586FFE0ECF
:10112800596F7AEC23F0720E0001816F010E826F05
:1011380007EC26F09DD4F3C0D9FFF4C0DAFFDECF68
:10114800F6FFDDCFF7FF0800F550250AD8A4E8D24E
:10115800F3C0D9FFF4C0DAFFDE2A000EDD22000E4C
:101168000101D36F000ED26FD2C1D6F1D3C1D7F12E
:10117800D469D569F3C0D9FFF4C0DAFFDECFF6FF32
:10118800DDCFF7FF0800F5502A0AD8A423D0F3C012
:10119800D9FFF4C0DAFFDE2A000EDD22F5C0D9FF40
:1011A800F6C0DAFFDFCFF7F0020EDE26DFCFF8F069
:1011B800000EDD22F7C0D9FFF8C0DAFFDECFD2F18A
:1011C800DDCFD3F1D3AF41D0D681D26DD31FD8B004
:1011D800D32B3BD0F3C0D9FFF4C0DAFFDECF87F0C2
:1011E800DDCF88F021EC1AF087C0D2F188C0D3F1A6
:1011F80007D0F3C0D9FFF4C0DAFFDE2A000EDD22E3
:10120800D00E0001F76FFF0EF86FF3C0D9FFF4C0DE
:10121800DAFFDECFF6FFDDCFF7FF0800F550F96FF4
:10122800FA6BF751F927F851FA23FA5106E10A0E39
:10123800F95DD8B002D0010E01D0000E0101426F55
:10124800436B42514311D8A4D4D7F3C0D9FFF4C09B
:10125800DAFFDECFF6FFDDCFF7FF0800F5502E0AE4
:10126800D8A46FD0000ED56F000ED46FF3C0D9FF8D
:10127800F4C0DAFFDE2A000EDD22F3C0D9FFF4C085
:10128800DAFFDECFF6FFDDCFF7FF0800F5502A0AB8
:10129800D8A41CD0F3C0D9FFF4C0DAFFDE2A000EB0
:1012A800DD22F5C0D9FFF6C0DAFFDFCFF7F0020E76
:1012B800DE26DFCFF8F0000EDD22F7C0D9FFF8C038
:1012C800DAFFDECFD4F1DDCFD5F13BD0F3C0D9FFC3
:1012D800F4C0DAFFDECF87F0DDCF88F021EC1AF01A
:1012E80087C0D4F188C0D5F107D0F3C0D9FFF4C0C6
:1012F800DAFFDE2A000EDD22D00E0001F76FFF0EA6
:10130800F86FF3C0D9FFF4C0DAFFDECFF6FFDDCF08
:10131800F7FF0800F550F96FFA6BF751F927F85104
:10132800FA23FA5106E10A0EF95DD8B002D0010E8F
:1013380001D0000E0101446F456B44514511D8A4FA
:10134800D4D7F3C0D9FFF4C0DAFFDECFF6FFDDCF84
:10135800F7FF0800F5500001866F876BA3EC23F0B8
:101368000001865101014C6F4C51D8B439D0F3C0FB
:10137800D9FFF4C0DAFFDECFF7F0DDCFF8F0010EC9
:101388000001F727000EF823F7C0F6FFF8C0F7FFB3
:101398000800F550866F876BA3EC23F00001865197
:1013A80001014D6F4D51D8B41BD0F3C0D9FFF4C023
:1013B800DAFFDECFF7F0DDCFF8F0020E0001F727F5
:1013C800000EF823F7C0F6FFF8C0F7FF0800F55045
:1013D800866F876BA3EC23F00001865101014E6FE5
:1013E800F3C0D9FFF4C0DAFFDECFF6FFDDCFF7FF99
:1013F8000800F550630AD8A426D0F3C0D9FFF4C07A
:10140800DAFFDE2A000EDD22F5C0D9FFF6C0DAFFCA
:10141800DFCFF7F0020EDE26DFCFF8F0000EDD2278
:10142800F7C0D9FFF8C0DAFFDF504F6FF1C09BF06B
:10143800F2C09CF04FC19DF0A5EC22F09BC0F1F0EA
:101448009CC0F2F01200F3C0D9FFF4C0DAFFDECF7F
:10145800F6FFDDCFF7FF0800F550640AD8B40DD0C9
:10146800F3C0D9FFF4C0DAFFDECFF6FFDDCFF7FF18
:101478000800F550690AD8A43FD0F3C0D9FFF4C0DA
:10148800DAFFDE2A000EDD22F5C0D9FFF6C0DAFF4A
:10149800DFCFF7F0020EDE26DFCFF8F0000EDD22F8
:1014A800F7C0D9FFF8C0DAFFDECF38F1DDCF39F168
:1014B800000E39BFFF0E3A6F3B6F3C6F3D6F3E6FBA
:1014C8003F6FF1C09BF0F2C09CF038C19DF039C16C
:1014D8009EF03AC19FF03BC1A0F03CC1A1F03DC1D4
:1014E800A2F03EC1A3F03FC1A4F0CDEC16F09BC022
:1014F800F1F09CC0F2F01200660E4C19D8A43FD04F
:10150800F3C0D9FFF4C0DAFFDECFF6FFDDCFF7FF77
:101518000800F5CF4FF1F3C0D9FFF4C0DAFFDE2A97
:10152800000EDD22F5C0D9FFF6C0DAFFDFCFF7F0F5
:10153800040EDE26DFCFF8F0000EDD22F7C0D9FF5B
:10154800F8C0DAFFDECF48F1DECF49F1DECF4AF14D
:10155800DECF4BF1F1C0E5F0F2C0E6F048C1E7F0AC
:1015680049C1E8F04AC1E9F04BC1EAF04FC1EBF0DC
:1015780009EC00F0E5C0F1F0E6C0F2F012004C0E04
:101588000001806F010E816FFB0E826FFF0E836F6B
:10159800000E856F020E846F06EC20F0000180516A
:1015A8008111D8A456D0F3C0D9FFF4C0DAFFDECF3A
:1015B800F7F0DDCFF8F0010EF727000EF823F7C09B
:1015C800F6FFF8C0F7FF0800F5CF4FF1BF0EF76F31
:1015D800FF0EF86FF3C0D9FFF4C0DAFFDECFF6FFD5
:1015E800DDCFF7FF0800F550F96FFA6BF751F927CF
:1015F800F851FA23FA5106E11A0EF95DD8B002D073
:10160800010E01D0000E0101466F476B465147118C
:10161800F5C0D9FFF6C0DAFFDFCFF7F0040EDE26FB
:10162800DFCFF8F0000EDD22F7C0D9FFF8C0DAFFEF
:10163800DECF48F1DECF49F1DECF4AF1DECF4BF104
:10164800020EF3C0D9FFF4C0DAFFDE26000EDD2259
:1016580081D7F3C0D9FFF4C0DAFFDECFF6FFDDCFC4
:10166800F7FF0800F550730AD8A42AD0F3C0D9FFB1
:10167800F4C0DAFFDE2A000EDD22F5C0D9FFF6C07D
:10168800DAFFDFCFF7F0020EDE26DFCFF8F0000E2C
:10169800DD22F7C0D9FFF8C0DAFFDECF40F1DDCF99
:1016A80041F1F1C089F0F2C08AF040C18BF041C12C
:1016B8008CF063EC1BF089C0F1F08AC0F2F01200E4
:1016C800F3C0D9FFF4C0DAFFDECFF6FFDDCFF7FFB6
:1016D8000800F550250AD8A417D0F3C0D9FFF4C0E4
:1016E800DAFFDE2A000EDD22000E816F250E806FE4
:1016F800F1C082F0F2C083F058EC20F0000E000137
:10170800F26F010EF16F1200F3C0D9FFF4C0DAFFD7
:10171800DE2A000EDD22000EF26F000EF16F1200BD
:10172800F3C0D9FFF4C0DAFFDECFF6FFDDCFF7FF55
:101738000800F5500001806F816BF1C082F0F2C0A3
:1017480083F058EC20F0F3C0D9FFF4C0DAFFDE2AAA
:10175800000EDD22D3D730D0500E0101566F020E95
:10176800576F8B0E586FFF0E596F7AEC23F040D0ED
:10177800500E0101566F020E576FA10E586FFF0EE3
:10178800596F7AEC23F034D0500E0101566F020ED7
:10179800576F960E586FFF0E596F7AEC23F028D0CA
:1017A800500E0101566F020E576FAC0E586FFF0EA8
:1017B800596F7AEC23F01CD06CC0FDF06DC0FEF0C0
:1017C8000001FE51000AD8B404D0FF0AD8B40CD0E6
:1017D8000FD0FD51000AD8B4CBD7010AD8B4D4D75A
:1017E800030AD8B4DDD704D0FD51FF0AD8B4B4D762
:1017F800010E00018A6F010E27EC23F0900E010103
:10180800566F020E576F7F0E586FFF0E596FC4C187
:101818005AF1C5C15BF1C6C15CF1C7C15DF17AEC93
:1018280023F0900E0001926F020E936F1AEC26F0CF
:10183800010E00018A6F0E0E27EC23F0900E0101B5
:10184800566F020E576FE70E586FFF0E596F7AECFE
:1018580023F0900E0001926F020E936F1AEC26F09F
:10186800020E00018A6F010E27EC23F0900E010191
:10187800566F020E576F670E586FFF0E596FCCC127
:101888005AF1CDC15BF1CEC15CF1CFC15DF17AEC0B
:1018980023F0900E0001926F020E936F1AEC26F05F
:1018A8000101DC51D8B40ED0DB51D8B40BD0E70E0F
:1018B800566F010E576FF70E586FFF0E596F7AEC7F
:1018C80023F032D0DC51D8A40ED0DB51D8A40BD0F1
:1018D800E70E566F010E576FEB0E586FFF0E596FDC
:1018E8007AEC23F021D0DC51D8B40ED0DB51D8A447
:1018F8000BD0E70E566F010E576FEF0E586FFF0EA5
:10190800596F7AEC23F010D0DC51D8A40DD0DB51FC
:10191800D8B40AD0E70E566F010E576FF30E586F02
:10192800FF0E596F7AEC23F0020E00018A6F0E0E3B
:1019380027EC23F0E70E0001926F010E936F1AEC6B
:1019480026F0030E00018A6F010E27EC23F0900E9B
:101958000101566F020E576F730E586FFF0E596FC5
:10196800C8C15AF1C9C15BF1CAC15CF1CBC15DF113
:101978007AEC23F0900E0001926F020E936F1AEC2E
:1019880026F06C283CE16D28D8A439D0030E00015C
:101998008A6F0B0E27EC23F0DD0E0101566F010E46
:1019A800576FC90E586FFF0E596FC0C15AF1C1C1A8
:1019B8005BF1C2C15CF1C3C15DF17AEC23F0DD0ECD
:1019C8000001926F010E936F1AEC26F0040E0001CD
:1019D8008A6F0D0E27EC23F0E30E0101566F010EFE
:1019E800576F910E586FFF0E596F7AEC23F0E30E84
:1019F8000001926F010E936F1AEC26F0D3D06C5051
:101A08006D10D8A448D0030E00018A6F0B0E27EC86
:101A180023F05FC080F060C081F0000E0001836F8A
:101A2800050E826FF3EC25F080C070F181C071F172
:101A3800DD0E0101566F010E576FC00E586FFF0E75
:101A4800596F70C15AF171C15BF1000E5D6F250EBF
:101A58005C6F7AEC23F0DD0E0001926F010E936F3C
:101A68001AEC26F0040E00018A6F0D0E27EC23F005
:101A7800E30E0101566F010E576F910E586FFF0E5E
:101A8800596F7AEC23F0E30E0001926F010E936F09
:101A98001AEC26F087D06C046D10D8A441D0030E40
:101AA80000018A6F0B0E27EC23F05BC080F05CC04E
:101AB80081F0000E0001836F050E826FF3EC25F0B4
:101AC80080C070F181C071F1DD0E0101566F010E09
:101AD800576FB70E586FFF0E596F70C15AF171C129
:101AE8005BF1000E5D6F250E5C6F7AEC23F0DD0E66
:101AF8000001926F010E936F1AEC26F0040E00019C
:101B08008A6F0D0E27EC23F0E30E0101566F010ECC
:101B1800576F910E586FFF0E596F7AEC23F0B3D7B9
:101B2800020E6C186D10D8A43DD0030E00018A6F08
:101B38000B0E27EC23F0DD0E0101566F010E576FD7
:101B4800C90E586FFF0E596FC0C15AF1C1C15BF180
:101B5800C2C15CF1C3C15DF17AEC23F0DD0E000176
:101B6800926F010E936F1AEC26F0000E0001816F40
:101B78000A0E806FDEEC25F0040E00018A6F0D0E50
:101B880027EC23F0E30E0101566F010E576FD10EBB
:101B9800586FFF0E596F59C05AF15AC05BF17AEC71
:101BA80023F071D7040E00018A6F010E27EC23F091
:101BB800500E0001926F020E936F1AEC26F012007D
:101BC8000001BB51800BC46FBB51BB25CA6FBABFA4
:101BD800CA81CA51D8B40DD0CA29D8A408D0000ED9
:101BE800B86F000EB96F000EBA6F000EBB6FBA8FD8
:101BF80008D0000EB86F000EB96F000EBA6F000E55
:101C0800BB6FBF51800BC41BBF51BF25C96FBEBF7F
:101C1800C981C951D8B40DD0C929D8A408D0000E9B
:101C2800BC6F000EBD6F000EBE6F000EBF6FBE8F83
:101C380008D0000EBC6F000EBD6F000EBE6F000E08
:101C4800BF6FC951D8B403D0CA51D8A409D0000E67
:101C5800B86F000EB96F000EBA6F000EBB6F12009E
:101C6800BE51B803F3CFCFF0F4CFD0F0CF51C56F4A
:101C7800C66BC76BC86BD051CB6FCC6BCD6BCE6BC3
:101C8800BD51B903F3CFCFF0F4CFD0F0CF51C52772
:101C9800000EC623C723C823D051CB27000ECC2360
:101CA800CD23CE23BC51BA03F3CFCFF0F4CFD0F07D
:101CB800CF51C527000EC623C723C823D051CB2731
:101CC800000ECC23CD23CE23C7C0C8F0C6C0C7F0B2
:101CD800C5C0C6F0C56BBC51B903F3CFCFF0F4CF84
:101CE800D0F0CF51C527D051C623000EC723000E10
:101CF800C823BD51B803F3CFCFF0F4CFD0F0CF5104
:101D0800C527D051C623000EC723000EC823C7C05D
:101D1800C8F0C6C0C7F0C5C0C6F0C56BBC51B80393
:101D2800F3CFCFF0F4CFD0F0CF51C527D051C62391
:101D3800000EC723000EC823BE51B903F3CFCFF05E
:101D4800F4CFD0F0CF51CB27D051CC23000ECD23E8
:101D5800000ECE23BD51BA03F3CFCFF0F4CFD0F0AD
:101D6800CF51CB27D051CC23000ECD23000ECE234C
:101D7800BE51BA03F3CFCFF0F4CFD0F0CF51C06F3C
:101D8800D051C16FC26BC36BC2C0C3F0C1C0C2F037
:101D9800C0C0C1F0C06BC051CB27C151CC23C251C8
:101DA800CD23C351CE23C5C0C0F0C6C0C1F0C7C043
:101DB800C2F0C8C0C3F0190E05D0D890C333C233DF
:101DC800C133C033E82EF9D7C051CB27C151CC233A
:101DD800C251CD23C351CE23C7C0C8F0C6C0C7F077
:101DE800C5C0C6F0C56BC951CAC0C0F0C16BC02719
:101DF800000EC123820EC025CF6FFF0EC121D06F08
:101E08000FD0D890CB37CC37CD37CE37C8BFCB81A2
:101E1800D890C537C637C737C837CF07D8A0D00737
:101E2800CDAFEFD7000EC96FC8AF17D0FF0EC515DD
:101E3800C06FFF0EC615C16FFF0EC715C26F7F0EAC
:101E4800C815C36FC051C111C211C311D8B403D092
:101E5800010EC96F02D0CBB1FBD7C951D8B41FD07E
:101E6800010ECB27000ECC23CD23CE23CEA117D035
:101E7800CBC0C0F0CCC0C1F0CDC0C2F0CEC0C3F062
:101E8800C335C333C233C133C033C0C0CBF0C1C0C4
:101E9800CCF0C2C0CDF0C3C0CEF0CF4BD02BD0BF5A
:101EA8000DD0D05103E1CF29D8A008D0000ECB6FB8
:101EB800000ECC6F800ECD6F7F0E20D0D0BF05D026
:101EC800D0510EE1CF05D8B00BD0000ECB6F000E6D
:101ED800CC6F000ECD6F000ECE6F000EC46F0FD00A
:101EE800CFC0CAF0FF0ECB17FF0ECC177F0ECD1751
:101EF800000ECE17CAB1CD8FD890CA31CE6FC4515B
:101F0800CE13CBC0B8F0CCC0B9F0CDC0BAF0CEC0BB
:101F1800BBF012001250800B1B6E12501224216E5F
:101F280011BE21802150D8B40DD02128D8A408D0C2
:101F3800000E0F6E000E106E000E116E000E126E67
:101F4800118E08D0000E0F6E000E106E000E116E6E
:101F5800000E126E1650800B1B1A16501624206E97
:101F680015BE20802050D8B40DD02028D8A408D081
:101F7800000E136E000E146E000E156E000E166E17
:101F8800158E08D0000E136E000E146E000E156E1E
:101F9800000E166E2050D8B403D02150D8A409D012
:101FA800000E0F6E000E106E000E116E000E126EF7
:101FB800120015500F02F3CF26F0F4CF27F0265069
:101FC8001C6E1D6A1E6A1F6A2750226E236A246AC5
:101FD800256A14501002F3CF26F0F4CF27F02650CC
:101FE8001C26000E1D221E221F2227502226000E0C
:101FF80023222422252213501102F3CF26F0F4CFF6
:1020080027F026501C26000E1D221E221F222750B4
:102018002226000E2322242225221EC01FF01DC0C6
:102028001EF01CC01DF01C6A13501002F3CF26F0DE
:10203800F4CF27F026501C2627501D22000E1E2202
:10204800000E1F2214500F02F3CF26F0F4CF27F012
:1020580026501C2627501D22000E1E22000E1F226D
:102068001EC01FF01DC01EF01CC01DF01C6A1350BE
:102078000F02F3CF26F0F4CF27F026501C26275066
:102088001D22000E1E22000E1F2215501002F3CF33
:1020980026F0F4CF27F02650222627502322000EC0
:1020A8002422000E252214501102F3CF26F0F4CF7B
:1020B80027F02650222627502322000E2422000E25
:1020C800252215501102F3CF26F0F4CF27F0265021
:1020D800176E2750186E196A1A6A19C01AF018C0B4
:1020E80019F017C018F0176A175022261850232223
:1020F800195024221A5025221CC017F01DC018F0B0
:102108001EC019F01FC01AF0190E05D0D8901A3247
:10211800193218321732E82EF9D7175022261850DC
:102128002322195024221A5025221EC01FF01DC038
:102138001EF01CC01DF01C6A205021C017F0186A40
:102148001726000E1822820E1724266EFF0E18205E
:10215800276E0FD0D89022362336243625361FBE58
:102168002280D8901C361D361E361F362606D8A06B
:10217800270624AEEFD7000E206E1FAE17D0FF0E35
:102188001C14176EFF0E1D14186EFF0E1E14196E08
:102198007F0E1F141A6E1750181019101A10D8B481
:1021A80003D0010E206E02D022B0FBD72050D8B445
:1021B8001FD0010E2226000E23222422252225A02C
:1021C80017D022C017F023C018F024C019F025C07A
:1021D8001AF01A341A3219321832173217C022F08C
:1021E80018C023F019C024F01AC025F0264A272A5F
:1021F80027BE0DD0275003E12628D8A008D0000E0E
:10220800226E000E236E800E246E7F0E20D027BE15
:1022180005D027500EE12604D8B00BD0000E226E50
:10222800000E236E000E246E000E256E000E1B6E2F
:102238000FD026C021F0FF0E2216FF0E23167F0EA8
:102248002416000E251621B0248ED8902130256E34
:102258001B50251222C00FF023C010F024C011F02B
:1022680025C012F0120000019751800BA06F975102
:102278009725A26F96BFA281A251D8B40DD0A229EA
:10228800D8A408D0000E946F000E956F000E966FBC
:10229800000E976F968F06D0000E946F000E956F04
:1022A800000E966F000E976F9B51800BA16FA05187
:1022B800A119D8A4A08D9B519B25A16F9ABFA1817C
:1022C800A151D8B40DD0A129D8A408D0000E986F78
:1022D800000E996F000E9A6F000E9B6F9A8F06D0B2
:1022E800000E986F000E996F000E9A6F000E9B6F8C
:1022F800A251A15DD8B022D0A0AD02D0800EA01B03
:10230800A2C0A3F0A1C0A2F0A3C0A1F094C0A3F002
:1023180098C094F0A3C098F095C0A3F099C095F028
:10232800A3C099F096C0A3F09AC096F0A3C09AF003
:1023380097C0A3F09BC097F0A3C09BF0000EA36FBB
:10234800A251A1C09CF09D6B9C5F000E9D5B9DBF40
:102358002CD09D5104E11A0E9C5DD8A026D0945132
:10236800951196119711D8B402D0010E01D0000E24
:10237800A36F000E946F000E956F000E966F000EFF
:10238800976FA1C0A2F015D0A3A105D0D890A33112
:102398000109A36F02D0D890A33394B1A38F9735C6
:1023A8009733963395339433A22BA151A25DD8A0CD
:1023B800EBD7A0BD28D0A251D8A409D0000E946FA5
:1023C800000E956F000E966F000E976F12009851D1
:1023D8009427995195239A5196239B51972397A116
:1023E80071D0A3A105D0D890A3310109A36F02D061
:1023F800D890A33394B1A38F9735973396339533F9
:102408009433A22B5FD09851945D995195599A5164
:1024180096599751800A9C6F9B51800A9C59D8B055
:1024280025D09451985D9C6F955199599D6F9651FF
:102438009A599E6F97519B599F6FFF0E9C25946FD9
:10244800FF0E9D21956FFF0E9E21966FFF0E9F2117
:10245800976F800EA01BA36DA351D8A40FD0010EB7
:102468009427000E95239623972308D09851945FBC
:102478009951955B9A51965B9B51975B9451951135
:1024880096119711D8A41CD0A351D8A419D0000E26
:10249800946F000E956F000E966F000E976F1200E6
:1024A800D8909437953796379737A3BF9481A3A1CF
:1024B80002D0D88001D0D890A337A251D8A4A207BF
:1024C80096AFEED7000EA16FA3AF0BD0A3C09CF0C0
:1024D8007F0E9C17D8B403D0010EA16F02D094B11F
:1024E800FBD7A151D8B420D0010E9427000E952314
:1024F8009623972397A118D094C09CF095C09DF07F
:1025080096C09EF097C09FF09F359F339E339D33B2
:102518009C339CC094F09DC095F09EC096F09FC0DF
:1025280097F0A229D8A4A22BA229D8B403D0A251EB
:10253800D8A40DD0000E946F000E956F000E966F04
:10254800000E976FA251D8A402D0000EA06FA2A1CE
:1025580002D0968F01D0969FD890A231976FA0BFD6
:10256800978F94C094F095C095F096C096F097C058
:1025780097F012000450800B0D6E045004240F6E67
:1025880003BE0F800F50D8B40DD00F28D8A408D0A0
:10259800000E016E000E026E000E036E000E046E39
:1025A800038E06D0000E016E000E026E000E036E42
:1025B800000E046E0850800B0E6E0D500E18D8A435
:1025C8000D8C085008240E6E07BE0E800E50D8B42D
:1025D8000DD00E28D8A408D0000E056E000E066E89
:1025E800000E076E000E086E078E06D0000E056EF0
:1025F800000E066E000E076E000E086E0F500E5C81
:10260800D8B022D00DAC02D0800E0D1A0FC010F039
:102618000EC00FF010C00EF001C010F005C001F0A0
:1026280010C005F002C010F006C002F010C006F09D
:1026380003C010F007C003F010C007F004C010F08A
:1026480008C004F010C008F0000E106E0F500EC045
:1026580009F00A6A095E000E0A5A0ABE2CD00A500E
:1026680004E11A0E095CD8A026D00150021003100C
:102678000410D8B402D0010E01D0000E106E000E66
:10268800016E000E026E000E036E000E046E0EC088
:102698000FF015D010A005D0D89010300109106E99
:1026A80002D0D890103201B0108E043404320332B4
:1026B800023201320F2A0E500F5CD8A0EBD70DBCA6
:1026C80028D00F50D8A409D0000E016E000E026E5B
:1026D800000E036E000E046E12000550012606500F
:1026E8000222075003220850042204A071D010A02F
:1026F80005D0D89010300109106E02D0D890103251
:1027080001B0108E043404320332023201320F2A2F
:102718005FD00550015C065002580750035804501A
:10272800800A096E0850800A0958D8B025D001508F
:10273800055C096E025006580A6E035007580B6E66
:10274800045008580C6EFF0E0924016EFF0E0A2073
:10275800026EFF0E0B20036EFF0E0C20046E800E1F
:102768000D1A106C1050D8A40FD0010E0126000EBF
:1027780002220322042208D00550015E0650025AA4
:102788000750035A0850045A01500210031004104D
:10279800D8A41CD01050D8A419D0000E016E000E79
:1027A800026E000E036E000E046E1200D890013601
:1027B80002360336043610BE018010A002D0D8803D
:1027C80001D0D89010360F50D8A40F0603AEEED71C
:1027D800000E0E6E10AE0BD010C009F07F0E091659
:1027E800D8B403D0010E0E6E02D001B0FBD70E5044
:1027F800D8B420D0010E0126000E022203220422A2
:1028080004A018D001C009F002C00AF003C00BF000
:1028180004C00CF00C340C320B320A32093209C0F5
:1028280001F00AC002F00BC003F00CC004F00F283E
:10283800D8A40F2A0F28D8B403D00F50D8A40DD08D
:10284800000E016E000E026E000E036E000E046E86
:102858000F50D8A402D0000E0D6E0FA002D0038E28
:1028680001D0039ED8900F30046E0DBE048E01C0B7
:1028780001F002C002F003C003F004C004F012002B
:1028880000019751800BA46F97519725AB6F96BFA6
:10289800AB81AB51D8B40DD0AB29D8A408D0000E69
:1028A800946F000E956F000E966F000E976F968FBF
:1028B80006D0000E946F000E956F000E966F000EF6
:1028C800976F9B51800BA41B9B519B25AC6F9ABFA4
:1028D800AC81AC51D8B40DD0AC29D8A408D0000E26
:1028E800986F000E996F000E9A6F000E9B6F9A8F6B
:1028F80006D0000E986F000E996F000E9A6F000EAA
:102908009B6F985199119A119B11D8A417D0000E5A
:10291800946F000E956F000E966F000E976F800EE5
:1029280096137F0E9713A451971394C094F095C0F3
:1029380095F096C096F097C097F01200AB51D8A4C6
:1029480009D0000E946F000E956F000E966F000E62
:10295800976F1200AC51ABC09CF09D6B9C5F000E52
:102968009D5B7F0E9C25A56F000E9D21A66F94C0D0
:10297800A0F095C0A1F096C0A2F097C0A3F0000EF9
:10298800946F000E956F000E966F000E976F000EF5
:10299800A76F000EA86F000EA96F000EAA6F000E99
:1029A800AC6F28D0AC51D8B411D0D890A037A1378B
:1029B800A237A337D8909437953796379737AABF59
:1029C8009481D890A737A837A937AA379851A05D1E
:1029D8009951A1599A51A2599B51A359D8A009D0EC
:1029E800AA8D9851A05F9951A15B9A51A25B9B5106
:1029F800A35BAC2B190EAC65D5D7A051A111A211C0
:102A0800A311D8B411D0A7810FD0D8909437953797
:102A180096379737AABF9481D890A737A837A93790
:102A2800AA37A507D8A0A60796AFEFD7000EAC6FB8
:102A3800AAAF17D0FF0EA7159C6FFF0EA8159D6FA4
:102A4800FF0EA9159E6F7F0EAA159F6F9C519D11B1
:102A58009E119F11D8B403D0010EAC6F02D094B16F
:102A6800FBD7AC51D8B41FD0010E9427000E952384
:102A78009623972397A117D094C09CF095C09DF0FA
:102A880096C09EF097C09FF09F359F339E339D332D
:102A98009C339CC094F09DC095F09EC096F09FC05A
:102AA80097F0A54BA62BA6BF10D0A65103E1A529E8
:102AB800D8A00BD0000EA66FA569000E946F000E6B
:102AC800956F000E966F000E976FA6BF05D0A651A2
:102AD80011E1A505D8B00ED0000EA66F000EA56FA7
:102AE800000E946F000E956F000E966F000E976F94
:102AF800000EA46FA5C0ABF0ABA102D0968F01D099
:102B0800969FD890AB31976F0ED72B50800B386EAD
:102B18002B502B243F6E2ABE3F803F50D8B40DD097
:102B28003F28D8A408D0000E286E000E296E000E8B
:102B38002A6E000E2B6E2A8E06D0000E286E000E0E
:102B4800296E000E2A6E000E2B6E2F50800B381A3D
:102B58002F502F24406E2EBE40804050D8B40DD048
:102B68004028D8A408D0000E2C6E000E2D6E000E42
:102B78002E6E000E2F6E2E8E06D0000E2C6E000EBE
:102B88002D6E000E2E6E000E2F6E2C502D102E1056
:102B98002F10D8A417D0000E286E000E296E000E34
:102BA8002A6E000E2B6E800E2A127F0E2B123850C2
:102BB8002B1228C028F029C029F02AC02AF02BC0DF
:102BC8002BF012003F50D8A409D0000E286E000E3A
:102BD800296E000E2A6E000E2B6E120040503FC068
:102BE80030F0316A305E000E315A7F0E3024396E73
:102BF800000E31203A6E28C034F029C035F02AC0C2
:102C080036F02BC037F0000E286E000E296E000E2D
:102C18002A6E000E2B6E000E3B6E000E3C6E000EF0
:102C28003D6E000E3E6E000E406E28D04050D8B467
:102C380011D0D8903436353636363736D8902836CF
:102C480029362A362B363EBE2880D8903B363C366D
:102C58003D363E362C50345C2D5035582E50365863
:102C68002F503758D8A009D03E8C2C50345E2D50A8
:102C7800355A2E50365A2F50375A402A190E40646A
:102C8800D5D73450351036103710D8B411D03B8012
:102C98000FD0D890283629362A362B363EBE2880C3
:102CA800D8903B363C363D363E363906D8A03A06F3
:102CB8002AAEEFD7000E406E3EAE17D0FF0E3B1483
:102CC800306EFF0E3C14316EFF0E3D14326E7F0ED7
:102CD8003E14336E3050311032103310D8B403D054
:102CE800010E406E02D028B0FBD74050D8B41FD098
:102CF800010E2826000E29222A222B222BA017D0CB
:102D080028C030F029C031F02AC032F02BC033F08F
:102D18003334333232323132303230C028F031C0BD
:102D280029F032C02AF033C02BF0394A3A2A3ABE89
:102D380010D03A5003E13928D8A00BD0000E3A6ED3
:102D48003968000E286E000E296E000E2A6E000EDD
:102D58002B6E3ABE05D03A5011E13904D8B00ED0E6
:102D6800000E3A6E000E396E000E286E000E296EA7
:102D7800000E2A6E000E2B6E000E386E39C03FF022
:102D88003FA002D02A8E01D02A9ED8903F302B6EC9
:102D98000ED79DC0B5F09EC0B6F09FC0B7F0A0C0DA
:102DA800B8F0A1C0B9F0A2C0BAF0A3C0BBF0A4C0EB
:102DB800BCF00001BCAF02D0010E01D0000EB36F11
:102DC800B46BB351B411D8B410D0BC1FBB1FBA1F19
:102DD800B91FB81FB71FB61FB56D000EB623B723AE
:102DE800B823B923BA23BB23BC230101D5AFD6939B
:102DF800D5BF05D0D55109E1D405D8B006D0000E0D
:102E08000001B06F010EAF6F04D0D4C1AFF0D5C1CF
:102E1800B0F0D2C1B1F0D3C1B2F00001B351B411D6
:102E2800D8A403D00101D6A504D00001B107D8A0C9
:102E3800B207000E0001BE6F4F0EBD6F000E0201FB
:102E48004F6F7ED00001BD07D8A0BE07000EBD257C
:102E5800D96E020EBE21DA6EB5C080F0B6C081F020
:102E6800B7C082F0B8C083F0B9C084F0BAC085F0AA
:102E7800BBC086F0BCC087F00A0E886F000E896F51
:102E8800000E8A6F000E8B6F000E8C6F000E8D6F18
:102E9800000E8E6F000E8F6F01EC1CF080C0A5F045
:102EA80081C0A6F082C0A7F083C0A8F084C0A9F0B2
:102EB80085C0AAF086C0ABF087C0ACF0A5C092F080
:102EC800A7C093F0D1EC24F000019251300FDF6ECF
:102ED800AF07D8A0B007B107D8A0B207B5C080F037
:102EE800B6C081F0B7C082F0B8C083F0B9C084F032
:102EF800BAC085F0BBC086F0BCC087F00A0E886FE8
:102F0800000E896F000E8A6F000E8B6F000E8C6F9B
:102F1800000E8D6F000E8E6F000E8F6FDAEC18F0BA
:102F280080C0B5F081C0B6F082C0B7F083C0B8F0F9
:102F380084C0B9F085C0BAF086C0BBF087C0BCF0C9
:102F48000001BEBF20D0BE5103E1BD05D8A01BD0F3
:102F5800B551B611B711B811B911BA11BB11BC11DD
:102F6800D8A470D7B0BF05D0B05102E1AF05D8B032
:102F780069D7B2BF08D0B25103E1B105D8A003D0D8
:102F88000101D6B35FD70001B351B411D8A403D05F
:102F98000101D6A518D00001BD07D8A0BE07B351BE
:102FA800B411D8A404D0000EAE6F2B0E03D0000EBF
:102FB800AE6F2D0EAD6F000EBD25D96E020EBE216F
:102FC800DA6EADC0DFFF9BC090F09CC091F0000EA0
:102FD8000001BD25926F020EBE21936FB1C094F01F
:102FE800B2C095F0A9EC20F090C09BF091C09CF085
:102FF800120051C0BDF052C0BEF053C0BFF054C063
:10300800C0F0ADC0BDF0AEC0BEF0AFC0BFF0B0C044
:10301800C0F0810E0001B16FFF0EB26FBDC0B3F0FA
:10302800BEC0B4F0BFC0B5F0C0C0B6F0180E05D031
:10303800D890B633B533B433B333E82EF9D7B35198
:10304800B125BB6F000EB221BC6FBCBF0FD0BC5105
:1030580004E1170EBB5DD8A009D0ADC0ADF0AEC07D
:10306800AEF0AFC0AFF0B0C0B0F01200BCBF5FD0E0
:10307800BBC0B1F0FF0EB26FFF0EB36F7F0EB46F1F
:10308800000EB56FB16701D007D0B535B533B4338D
:10309800B333B233B12FF6D7B2C0B7F0B3C0B8F07C
:1030A800B4C0B9F0B5C0BAF00001B751BD15B16FE1
:1030B800B851BE15B26FB951BF15B36FBA51C0152B
:1030C800B46FB151B211B311B411D8B4C6D7BDC0E1
:1030D800B1F0BEC0B2F0BFC0B3F0C0C0B4F0200EB3
:1030E80005D0D890B433B333B233B133E82EF9D71F
:1030F800B151B211B311B411D8B408D0B751BD272A
:10310800B851BE23B951BF23BA51C023B71DB16FFF
:10311800B81DB26FB91DB36FBA1DB46FB151BD17E9
:10312800B251BE17B351BF17B451C01736D0BDC086
:10313800B1F0BEC0B2F0BFC0B3F0C0C0B4F0200E52
:1031480005D0D890B433B333B233B133E82EF9D7BE
:10315800B151B211B311B411D8A408D0000EBD6F8B
:10316800000EBE6F000EBF6F000E16D0D890BD3592
:10317800B16FBE35B26FBF35B36FC035B46FB151E3
:10318800B211B311B411D8B408D0000EBD6F000E3F
:10319800BE6F800EBF6FBF0EC06FBDC0ADF0BEC0AA
:1031A800AEF0BFC0AFF0C0C0B0F01200000E00011A
:1031B800916F8FAF12D08F1F8E1F8D1F8C1F8B1F8B
:1031C8008A1F891F886D000E89238A238B238C23ED
:1031D8008D238E238F23010E916F87AF12D0871F07
:1031E800861F851F841F831F821F811F806D000E0D
:1031F8008123822383238423852386238723010E27
:10320800911B20EE92F0070EDE6AE806FDE2885177
:1032180089118A118B118C118D118E118F11D8B4CF
:1032280046D0010E906F0AD0D890883789378A37F0
:103238008B378C378D378E378F37902B8FAFF4D7EE
:10324800D89092379337943795379637973798377A
:1032580099378851805D895181598A5182598B519A
:1032680083598C5184598D5185598E5186598F5166
:103278008759D8A011D08851805F8951815B8A51C4
:10328800825B8B51835B8C51845B8D51855B8E5146
:10329800865B8F51875B9281D8908F338E338D33C5
:1032A8008C338B338A3389338833902FC9D7915124
:1032B800D8B410D0991F981F971F961F951F941F59
:1032C800931F926D000E932394239523962397239F
:1032D8009823992392C080F093C081F094C082F023
:1032E80095C083F096C084F097C085F098C086F0AA
:1032F80099C087F0120000018E6F00018E51D8A48A
:1033080089AF1AD086C08AF087C08BF088C08CF04D
:1033180089C08DF08A1F8B1F8C1F8D1F8A2B000E72
:103328008B238C238D238AC090F08BC091F08CC0A6
:1033380092F08DC093F008D086C090F087C091F0CD
:1033480088C092F089C093F086518711881189113D
:10335800D8A409D0000E866F000E876F000E886F04
:10336800000E896F1200960E8F6F06D08F2BD890A3
:103378009333923391339033000E90158A6F000E79
:1033880091158B6F000E92158C6FFE0E93158D6F35
:103398008A518B118C118D11D8B40DD0E7D78F2B92
:1033A800010E9027000E912392239323D8909333F4
:1033B800923391339033000E90158A6F000E911559
:1033C8008B6F000E92158C6FFF0E93158D6F8A51BF
:1033D8008B118C118D11D8B407D0E1D78F07D890F5
:1033E800903791379237933792BF03D0020E8F618F
:1033F800F5D78FA1929FD8908F338FC08AF08B6BAF
:103408008C6B8D6B8AC08DF08C6B8B6B8A6B8A5141
:1034180090138B5191138C5192138D5193138E519C
:10342800D8A489AF01D0938F90C086F091C087F05F
:1034380092C088F093C089F01200000E0001956FC9
:10344800000E946F000E8E6F000E8D6F02D0874BAA
:10345800882B010E936F87C0F6FF88C0F7FF08001E
:10346800F550200AD8B418D0F70E896FFF0E8A6F6E
:1034780087C0F6FF88C0F7FF0800F5508B6F8C6B8C
:1034880089518B278A518C238C5104E1050E8B5D61
:10349800D8A002D0000E936F93C08FF0906B8F511D
:1034A8009011D8B408D0D3D7000E8E6F010E8D6F4F
:1034B800874B882B2FD087C0F6FF88C0F7FF0800FE
:1034C800F550896F8A6B8A51000AD8A423D0895194
:1034D8002B0AD8B4EDD7060AD8B4E6D71BD094C0C7
:1034E80080F095C081F0000E836F0A0E826FF3ECB6
:1034F80025F087C0F6FF88C0F7FF0800F5500001E7
:10350800805F000E815B300E8025946F000E812154
:10351800956FCED7D00E896FFF0E8A6F87C0F6FFE2
:1035280088C0F7FF0800F5508B6F8C6B89518B278B
:103538008A518C238C5106E10A0E8B5DD8B002D0DB
:10354800010E01D0000E916F926B91519211D8A487
:10355800C6D78D518E11D8A40DD094C089F095C0CE
:103568008AF0891F8A1F894B8A2B89C087F08AC0F5
:1035780088F0120094C087F095C088F01200096E98
:103588000950D8A404AE1AD001C005F002C006F054
:1035980003C007F004C008F0051E061E071E081E1B
:1035A800052A000E06220722082205C00BF006C0D5
:1035B8000CF007C00DF008C00EF008D001C00BF0E9
:1035C80002C00CF003C00DF004C00EF00150021050
:1035D80003100410D8A409D0000E016E000E026E6C
:1035E800000E036E000E046E1200960E0A6E06D0D0
:1035F8000A2AD8900E320D320C320B32000E0B1400
:10360800056E000E0C14066E000E0D14076EFE0EED
:103618000E14086E0550061007100810D8B40DD007
:10362800E7D70A2A010E0B26000E0C220D220E22C5
:10363800D8900E320D320C320B32000E0B14056E80
:10364800000E0C14066E000E0D14076EFF0E0E14FD
:10365800086E0550061007100810D8B407D0E1D737
:103668000A06D8900B360C360D360E360DBE03D032
:10367800020E0A60F5D70AA00D9ED8900A320AC039
:1036880005F0066A076A086A05C008F0076A066A4C
:10369800056A05500B1206500C1207500D120850FF
:1036A8000E120950D8A404AE01D00E8E0BC001F042
:1036B8000CC002F00DC003F00EC004F0120020EEA2
:1036C80061F010EE8EF0060EDBCFE3FFE806FCE2B9
:1036D8008BC099F08CC09AF0000199519A11D8A426
:1036E80004D08E0E996F000E9A6F99C080F09AC020
:1036F80081F09AEC25F080C09DF081C09EF0D4C185
:103708009BF0D5C19CF000019CBF0ED09D519B5DE4
:103718009C51800A8D6F9E51800A8D59D8B004D073
:103728009BC09DF09CC09EF09DC09BF09EC09CF0ED
:10373800D2C197F0D3C198F00101D6A10ED018D00C
:10374800000E816F200E806F89C082F08AC083F0DE
:1037580058EC20F000019D4B9E2B000197519D5D78
:103768009E51800A8D6F9851800A8D59D8A0E8D74C
:10377800000E0001966F000E956F14D099C0D9FF06
:103788009AC0DAFFDF508D6F8D51806F816B89C0D1
:1037980082F08AC083F058EC20F00001994B9A2BF4
:1037A800954B962B9B51955D9651800A8D6F9C5138
:1037B800800A8D59D8A0E2D70101D6B10ED018D011
:1037C800000E816F200E806F89C082F08AC083F05E
:1037D80058EC20F000019D4B9E2B000197519D5DF8
:1037E8009E51800A8D6F9851800A8D59D8A0E8D7CC
:1037F8009DC089F09EC08AF01200000E0001916FF2
:1038080087AF12D0871F861F851F841F831F821FC3
:10381800811F806D000E81238223832384238523C7
:1038280086238723010E916F8FAF10D08F1F8E1FB5
:103838008D1F8C1F8B1F8A1F891F886D000E89237F
:103848008A238B238C238D238E238F2388518911E0
:103858008A118B118C118D118E118F11D8B43CD017
:10386800010E906F0AD0D890883789378A378B37FE
:103878008C378D378E378F37902B8FAFF4D7885191
:10388800805D895181598A5182598B5183598C5154
:1038980084598D5185598E5186598F518759D8A091
:1038A80010D08851805F8951815B8A51825B8B512E
:1038B800835B8C51845B8D51855B8E51865B8F5108
:1038C800875BD8908F338E338D338C338B338A3329
:1038D80089338833902FD3D79151D8B410D0871F0C
:1038E800861F851F841F831F821F811F806D000E06
:1038F800812382238323842385238623872380C0EF
:1039080080F081C081F082C082F083C083F084C0DF
:1039180084F085C085F086C086F087C087F01200E5
:10392800000E0001D915E16F000EDA15E26F800E66
:10393800DB15E36F7F0EDC15E46FE151E211E31153
:10394800E411D8A408D0000ED96F000EDA6F000E6B
:10395800DB6F000EDC6F000EDD15E16F000EDE156B
:10396800E26F800EDF15E36F7F0EE015E46FE15123
:10397800E211E311E411D8A408D0000EDD6F000EA7
:10398800DE6F000EDF6F000EE06FDCAF09D0D96D7F
:10399800DA1FD8B0DA2BDB1FD8B0DB2B800EDC5750
:1039A800E0AF09D0DD6DDE1FD8B0DE2BDF1FD8B049
:1039B800DF2B800EE057000ED91B000EDA1B000E1D
:1039C800DB1B800EDC1B000EDD1B000EDE1B000E59
:1039D800DF1B800EE01BDD51D95DDE51DA59DF5166
:1039E800DB59E051DC59D8B002D0D8901200D88009
:1039F800120055C08AF056C08BF057C08CF058C0E2
:103A08008DF080C08AF081C08BF082C08CF083C0BA
:103A18008DF08AC084F08BC085F08CC086F08DC094
:103A280087F0180E06D00001D89087338633853387
:103A38008433E82EF8D78451886F896B88518911AF
:103A4800D8A419D0D8908A35846F8B35856F8C357A
:103A5800866F8D35876F8451851186118711D8A49B
:103A680005D0000E816F020E806F1200000E816F6C
:103A7800030E806F120088298911D8A41CD08AC02F
:103A880084F08BC085F08CC086F08DC087F0090E5D
:103A9800D8908437853786378737E82EF9D7845109
:103AA800851186118711D8A402D0010E01D0000E0D
:103AB800806F816B1200000E816F040E806F120000
:103AC800F0926C506D10D8A40FD060BE06D0605034
:103AD8005DE1140E5F5CD8B01200010E5F245F6ECA
:103AE800000E6020606E12006C046D10D8A43FD0E8
:103AF8005CBE06D05C504AE1140E5B5CD8B0120084
:103B0800010E5B245B6E000E5C205C6E5BC001F0F6
:103B18005CC002F0000E02BEFF0E036E046E010EC2
:103B2800C3EC1AF001C00FF002C010F003C011F08E
:103B380004C012F0000E136E000E146EA00E156E67
:103B4800400E166E8EEC0FF00FC04BF010C04CF00C
:103B580011C04DF012C04EF04BC041F04CC042F0C5
:103B68004DC043F04EC044F0AAEC1FF01200020E04
:103B78006C186D10D8A412005ABE06D05A5006E12F
:103B8800040E595CD8B01200594A5A2A1200F09013
:103B98006C506D10D8A40ED060BE1200605003E1C6
:103BA8005F04D8A01200FF0E5F245F6EFF0E602036
:103BB800606E12006C046D10D8A43ED05CBE12007A
:103BC8005C5003E15B04D8A01200FF0E5B245B6E1F
:103BD800FF0E5C205C6E5BC001F05CC002F0000E62
:103BE80002BEFF0E036E046E010EC3EC1AF001C094
:103BF8000FF002C010F003C011F004C012F0000E64
:103C0800136E000E146EA00E156E400E166E8EEC1E
:103C18000FF00FC04BF010C04CF011C04DF012C0A7
:103C28004EF04BC041F04CC042F04DC043F04EC086
:103C380044F0AAEC1FF01200020E6C186D10D8A404
:103C480012005ABE12005A5003E15904D8A01200BB
:103C58005906D8A05A061200000E0001BC6FC00E0B
:103C6800BD6F7F0EBE6F440EBF6FDBC0B8F0DCC007
:103C7800B9F0DDC0BAF0DEC0BBF0E4EC0DF0B8C0BE
:103C880094F0B9C095F0BAC096F0BBC097F0000E9A
:103C98000001986F000E996FC80E9A6F420E9B6FC5
:103CA80044EC14F094C0DFF095C0E0F096C0E1F069
:103CB80097C0E2F0000E0001986F000E996F000E99
:103CC8009A6F3F0E9B6FDFC094F0E0C095F0E1C0A3
:103CD80096F0E2C097F037EC11F094C0D1F095C09F
:103CE800D2F096C0D3F097C0D4F0EFEC1EF0D1C05C
:103CF800E3F0D2C0E4F00001E4BF07D0040EE45DB5
:103D0800D8A003D0030EE46FE369E3C080F0E4C0F9
:103D180081F06AEC25F01200F292020E6C186D1018
:103D2800D8A405D0000E6D6E000E6C6E41D06C4AA2
:103D38006D2A3ED0000E0101DB6F000E416E000EB1
:103D4800426E000E436E000E446EAAEC1FF0829481
:103D5800010E0101DC6F000E606E000E5F6E000E3A
:103D68005E6E000E5D6EB1EC26F0B1801200010EA1
:103D78000101DB6F000EDC6FB190829A000E5C6E61
:103D8800000E5B6E1200000E5A6E000E596E7EEC2D
:103D980026F0000E0101DB6F8294000E416E000ECA
:103DA800426E000E436E000E446EAAEC1FF0120025
:103DB8006CC04BF06DC04CF04C50000AD8A41200F7
:103DC8004B50000AD8B4B6D7010AD8B4D0D7030AE2
:103DD800D8A41200D8D70001D335D435DA6FDA5118
:103DE800D8A409D0000ED16F000ED26F000ED36F89
:103DF800000ED46F1200D1C0D5F0D2C0D6F0D3C017
:103E0800D7F0D4C0D8F0200E05D0D890D833D73307
:103E1800D633D533E82EF9D7D551D96FD38FFF0EC6
:103E2800D117FF0ED217FF0ED317000ED417960E18
:103E3800DA5FDAAF0DD0DA51800A970FD8A0D2D75F
:103E4800D890D433D333D233D133DA3FF9D70DD026
:103E58001F0EDA6507D0C6D7D890D137D237D337F7
:103E6800D437DA07DA51D8A4F7D7D951D8B408D05B
:103E7800D41FD31FD21FD16D000ED223D323D42336
:103E8800D1C0D1F0D2C0D2F0D3C0D3F0D4C0D4F0D6
:103E98001200133414341A6E1A50D8A409D0000E24
:103EA800116E000E126E000E136E000E146E1200CC
:103EB80011C015F012C016F013C017F014C018F096
:103EC800200E05D0D8901832173216321532E82E47
:103ED800F9D71550196E138EFF0E1116FF0E121614
:103EE800FF0E1316000E1416960E1A5E1AAE0DD09B
:103EF8001A50800A970FD8A0D2D7D890143213320C
:103F0800123211321A3EF9D70DD01F0E1A6407D09B
:103F1800C6D7D89011361236133614361A061A50E8
:103F2800D8A4F7D71950D8B408D0141E131E121EDF
:103F3800116C000E12221322142211C011F012C0AB
:103F480012F013C013F014C014F01200000E136E18
:103F5800C00E146E7F0E156E440E166E41C00FF023
:103F680042C010F043C011F044C012F08EEC0FF0C4
:103F78000FC028F010C029F011C02AF012C02BF091
:103F8800000E2C6E000E2D6EC80E2E6E420E2F6E79
:103F980089EC15F028C045F029C046F02AC047F042
:103FA8002BC048F0000E056E000E066E000E076E60
:103FB8003F0E086E45C001F046C002F047C003F04E
:103FC80048C004F0BEEC12F001C011F002C012F0BB
:103FD80003C013F004C014F04DEC1FF011C049F0F9
:103FE80012C04AF04ABE07D0040E4A5CD8A003D0DB
:103FF800030E4A6E496849C001F04AC002F0B1ECAC
:1040080025F0120080C087F081C088F082C089F056
:1040180083C08AF000018407D8A0850784290FE1AE
:104028008529D8A40CD0000E816F000E806F120075
:10403800874B882B894B8A2B8407D8A0850787C094
:10404800D9FF88C0DAFFDF50D8B41CD089C0F6FF8A
:104058008AC0F7FF0800F5500009D8B413D084517E
:104068008511D8B40FD087C0D9FF88C0DAFFDF50D8
:10407800866F89C0F6FF8AC0F7FF0800F5508619D9
:10408800D8B4D6D787C0D9FF88C0DAFFDF50866F8B
:1040980089C0F6FF8AC0F7FF0800F550865D806F7B
:1040A800816BD8A081071200000182518311D8B416
:1040B80004D082518311D8A404D08051BAEC26F0E0
:1040C800120020EE04F08251D9268351DA22DE5004
:1040D800DE10D8B416D020EE04F08251D9268351D0
:1040E800DA2210EE02F08251E1268351E222DE50FC
:1040F800E65CE650800A886FDE50800A8859D8B09E
:10410800120020EE02F08251D9268351DA22DECF46
:1041180084F0DDCF85F082C0D9FF83C0DAFFDECF1F
:1041280086F0DDCF87F084518625D96E85518721A9
:10413800DA6E80C0DFFF20EE02F08251D92683516B
:10414800DA22DE2A000EDD2212000101D6A10AD0F1
:1041580092C089F093C08AF090C08BF091C08CF027
:1041680099EC24F0000195BF05D094C099F095C052
:104178009AF004D0000E9A6F000E996F000E986F97
:10418800000E976F0DD0000E816F200E806F90C0CB
:1041980082F091C083F058EC20F00001974B982BE7
:1041A8009951975D9851800A966F9A51800A96594D
:1041B800D8A0E9D70101D6B10AD092C089F093C03E
:1041C8008AF090C08BF091C08CF099EC24F092C0EA
:1041D80080F093C081F09AEC25F000019951802578
:1041E800906F9A518121916F12000001B76F000101
:1041F800B75115EC24F080C0B5F081C0B6F0B5C059
:1042080080F0B6C081F0000E0001836F050E826F4A
:10421800F3EC25F0000180C086F081C087F0000E25
:1042280087BFFF0E886F896F010E7FEC19F086C07B
:1042380094F087C095F088C096F089C097F0000E7A
:104248000001986FC00E996F7F0E9A6F440E9B6F96
:1042580044EC14F094C0B1F095C0B2F096C0B3F03D
:1042680097C0B4F0B1C0ADF0B2C0AEF0B3C0AFF01B
:10427800B4C0B0F01200000E00018015886F000E67
:104288008115896F800E82158A6F7F0E83158B6F5B
:10429800885189118A118B11D8A408D0000E806F1B
:1042A800000E816F000E826F000E836F000E841562
:1042B800886F000E8515896F800E86158A6F7F0EB0
:1042C80087158B6F885189118A118B11D8A408D052
:1042D800000E846F000E856F000E866F000E876FCC
:1042E800845180190AE18551811907E186518219A3
:1042F80004E187518319D8B402D0D8901200D8802D
:104308001200000E0001856F83AF06D0826D831FF7
:10431800D8B0832B010E856F81AF06D0806D811FC9
:10432800D8B0812B010E851B000E876F000E866F9B
:1043380082518311D8B41CD0010E846F04D0D89058
:1043480082378337842B83AFFAD7D890863787375D
:104358008251805D83518159D8A005D08251805FF8
:104368008351815B8681D89083338233842FEDD744
:104378008551D8B404D0866D871FD8B0872B86C0E6
:1043880080F087C081F01200000E0101DB6F010E82
:10439800DC6F000E0001BC6F000EBD6FA00EBE6F7B
:1043A800410EBF6F000E986F000E996FC80E9A6F7E
:1043B800420E9B6FDBC094F0DCC095F0DDC096F038
:1043C800DEC097F044EC14F094C0B8F095C0B9F092
:1043D80096C0BAF097C0BBF0E4EC0DF0B8C0D1F0CD
:1043E800B9C0D2F0BAC0D3F0BBC0D4F0EFEC1EF025
:1043F800D1C05FF0D2C060F0000E5E6E000E5D6E40
:10440800ACEC26F0B1801200000E0001856F81AF80
:1044180006D0806D811FD8B0812B010E856F83AFC8
:1044280004D0826D831FD8B0832B82518311D8B4F6
:1044380018D0010E846F04D0D89082378337842B2C
:1044480083AFFAD78251805D83518159D8A004D0B7
:104458008251805F8351815BD89083338233842F6C
:10446800F1D78551D8B404D0806D811FD8B0812B85
:1044780080C080F081C081F012000001916F1FD0D0
:10448800010E886F000E37EC24F0000E0001816FDA
:10449800020E806FDEEC25F01200020E8A6F010E0C
:1044A80027EC23F01200100E886F000E37EC24F072
:1044B800120091C088F0010E37EC24F012000001C0
:1044C80091518F6F906B9051000AD8A4F2D78F51F9
:1044D800080AD8B4E8D7020AD8B4DFD7060AD8B48D
:1044E800CFD7E7D752C1FBF053C1FCF0000E010152
:1044F800D16F000ED06F17D050C1F1F051C1F2F05A
:10450800FB0E0001F36F000EF46F54C1F5F055C1B6
:10451800F6F09FEC08F00001F1510101D0270001ED
:10452800F2510101D123FBC0F6FFFCC0F7FF0800E0
:10453800F5500009D8A4E0D7D0C150F1D1C151F14C
:1045480012000101D251D311D8A405D0D2C19EF0D6
:10455800D3C19FF009D0FF0ED22500019E6FFF0E38
:104568000101D32100019F6F9DC000F2000E0201DE
:10457800016F9BC090F09CC091F0000E0001926FFB
:10458800020E936F9EC094F09FC095F0A9EC20F0A6
:1045980090C09BF091C09CF0120084948492000E0D
:1045A8000001816F190E806FDEEC25F0010E00010D
:1045B8008A6F030E2DEC26F000018A2B030E8A6504
:1045C800F8D7020E2DEC26F0000E00018A6F680E57
:1045D8008A25D96EDA6A000EDA22DF50886F000E5B
:1045E80037EC24F000018A2B030E8A65F0D71200FD
:1045F80082C086F083C087F080C088F081C089F0CF
:1046080000018651846F8751856F864B872B84C044
:10461800F6FF85C0F7FF000EF86E88C0D9FF89C085
:10462800DAFF884B892B0F0EF76403D00800F5508A
:1046380005D0F6CFE1FFF7CFE2FFE750DF6EDF509E
:10464800D8B41200DDD700018D6F09D0800E05D0D7
:10465800C00E03D0900E01D0D00E8E6F15D0000181
:104668008A518B6F8C6B8C51000AD8A40DD08B515A
:10467800010AD8B4EBD7030AD8B4EAD7010AD8B4E8
:10468800E9D7070AD8B4E8D78D058E278E51800957
:10469800886F000E37EC24F012003E0EF66E4D0EB9
:1046A800F76E000EF86E00EE61F010EE0DF00900E6
:1046B800F5CFEEFFE550E150FAE102EE00F0D00E42
:1046C800EE6AE806FDE101EEC0F02A0EEE6AE806A1
:1046D800FDE100EE51F0100EEE6AE806FDE16E9085
:1046E8006E92000EF86E0001F9EF04F05A0E010107
:1046F800686F010E696F56C16AF157C16BF1000E00
:104708006D6F000E6C6F000E6F6F000E6E6F6A0E8D
:10471800506F010E516F58C152F159C153F1680ED3
:10472800546F010E556F76EC22F001016C5156253D
:10473800D96E6D515721DA6E000EDF6E1200BF0E72
:104748000001886FFF0E896F86C08AF087C08BF0E2
:1047580088518A2789518B238B5106E11A0E8A5D6D
:10476800D8B002D0010E01D0000E8C6F8D6B8C5129
:104778008D11D8B406D0200E8611866F8751876FA9
:10478800120086C086F087C087F012000600F3CFBB
:104798004FF0F4CF50F0A1A203D079EC24F017D059
:1047A800F2A203D090EC1EF012D0F0A003D0CBEC14
:1047B8001DF00DD0F0A203D064EC1DF008D0F2A4D7
:1047C80003D040EC26F003D09EBA05EC25F050C08B
:1047D800F4FF4FC0F3FF6E921100000E0001D51BCD
:1047E800000ED61B000ED71B800ED81BD1C094F02C
:1047F800D2C095F0D3C096F0D4C097F0D5C098F049
:10480800D6C099F0D7C09AF0D8C09BF037EC11F019
:1048180094C0D1F095C0D2F096C0D3F097C0D4F030
:1048280012000001866F86C082F00001824782472D
:10483800C2508219C30B8219C26EC28201D0040011
:10484800C2B2FDD7C350C4CF82F00001836B82C0CF
:1048580083F0826B8211846F8351856F84C080F0EE
:1048680085C081F012000001896F000189B102D072
:10487800849401D08484010EEBEC24F0010EEBEC5F
:1048880024F08492000188390F0B2DEC26F00001EA
:1048980088510F0B2DEC26F000018951D8B4120075
:1048A800320E0400E82EFDD71200010E0001866FBB
:1048B800200E80198111D8B414D0F70E826FFF0E24
:1048C800836F80C084F081C085F082518427835132
:1048D8008523855104E1050E845DD8A002D0000E21
:1048E800866F86C080F0816B1200A1925F505D5C7C
:1048F8005E50800A016E6050800A0158D8A002D02C
:10490800829A01D0828A140E5D185E10D8A408D04D
:104918005F506010D8A4828A000E5E6E000E5D6E35
:104928005D4A5E2AB1EC26F01200000E00018F6F7E
:10493800000E8E6F0CD08DC080F0816B8BC082F022
:104948008CC083F058EC20F000018E4B8F2B8E51D9
:104958008925D96E8F518A21DA6EDF508D6F8D517E
:10496800D8B41200E8D76C686D68000E0101DB6FDF
:10497800000EDC6FB190829A8294000E0001DB6F0A
:10498800000EDC6F000EDD6F000EDE6F30EC1EF0E7
:10499800000E5A6E000E596E1200000193BF05D02A
:1049A800935110E19205D8B00DD092C094F093C005
:1049B80095F0941F951F944B952B94C092F095C039
:1049C80093F0120092C092F093C093F0120000018D
:1049D800836F000E0001856F000E846F04D0040001
:1049E8000001844B852B8351806F816B8451805DDE
:1049F8008151800A826F8551800A8259D8A012009D
:104A0800EED7ABB402D0ABA202D0AB98AB88B6EC71
:104A180026F04B6E4D0E4B18D8A402D0010E07D0CD
:104A2800530E4B18D8A405D051EC25F0000E010107
:104A3800DA6F9E9A1200BF0E0001826FFF0E836F1D
:104A480080C084F081C085F08251842783518523FA
:104A5800855106E11A0E845DD8B002D0010E01D04E
:104A6800000E806F816B1200D00E0001826FFF0E66
:104A7800836F80C084F081C085F082518427835180
:104A88008523855106E10A0E845DD8B002D0010E57
:104A980001D0000E806F816B12006C686D68000E8B
:104AA8000101DB6F000EDC6FB190829A8294000ED8
:104AB800416E000E426E000E436E000E446EAAEC6C
:104AC8001FF0000E5A6E000E596E120080C082F060
:104AD80081C083F00001D89083338233D890833328
:104AE80082338251BE6E80C082F0030E8217823BF1
:104AF800BD508219CF0B8219BD6E12000001805182
:104B0800811182118311D8B408D0000E801B000EC9
:104B1800811B000E821B800E831B80C080F081C029
:104B280081F082C082F083C083F0120080C082F0DE
:104B380081C083F003D00001804B812B80C0D9FF56
:104B480081C0DAFFDF50D8A4F6D700018251805D1A
:104B5800806F83518159816F120001C003F002C038
:104B680004F0D89004320332D89004320332035050
:104B7800BE6E01C003F0030E0316033ABD500318BE
:104B8800CF0B0318BD6E1200000ED56EF294D580BF
:104B9800D582D594F60ED76E3C0ED66ECD82CD9AC0
:104BA800CD98000ECF6E000ECE6EF28EF28ACD80BA
:104BB800D58E1200000E0001836F000E826F08D0A0
:104BC800C80E04000400E82EFCD70001824B832B9A
:104BD8008051825D81518359D8B01200F1D700010C
:104BE80080518203F3CF84F0F4CF85F080518303A2
:104BF800F350852781518203F350852784C080F0C4
:104C080085C081F012000AD081C0D9FF82C0DAFFC6
:104C1800DF5096EC26F00001814B822B81C0D9FF32
:104C280082C0DAFFDF50D8B41200EED70AD092C0A3
:104C3800D9FF93C0DAFFDF5041EC22F00001924B1C
:104C4800932B92C0D9FF93C0DAFFDF50D8B412007B
:104C5800EED70001876F87C086F00001863B83503E
:104C680086190F0B8619836E010EEBEC24F08482F3
:104C7800040000F084921200CF50016ECE50010162
:104C8800D86F01C0D9F10B0ED76EDC0ED66E000EB0
:104C9800CF6E000ECE6EF2941200B896000EAC6E77
:104CA800190EAF6E000EB06EAC84AC8A000EAB6EFF
:104CB800AB88AB8EAE50AE501200000EC26E0C0E1A
:104CC800C16E9368800E946E000E826E9268000E1C
:104CD800956E000E966E1200000E0101DC6F000E3C
:104CE800606E000E5F6E000E5E6E000E5D6EB1901F
:104CF800829A1200000E0101DC6F000E606E000E39
:104D08005F6E000E5E6E000E5D6EB190829A1200AC
:104D1800CB68000ECA6E030ECA120C0EBD6ECA8492
:104D2800949412000001806F01D00400ACA2FDD75A
:104D380080C0ADFF1200286E756C6C2900280C012C
:034D480006FFFF64
:104D4C00000EC26EC280890EC06E1200F60EB36EDB
:104D5C003C0EB26E1200F60EB36E3C0EB26E12002A
:0A4D6C00AECF01F00150120012005A
:10FEFA00003D3D3D3D3D3D3D3D3D3D3D3D3D3D3D65
:10FF0A003D3D3D3D3D3D3D3D3D3D3D3D3D3D3D3D17
:10FF1A003D3D3D3D3D3D3D3D3D0D0A0052543A2596
:10FF2A00352E316643207C2053503A25352E3166D2
:10FF3A0043207C204F543A25352E3166430D0A0062
:10FF4A0025737C204845415445523A256320207C3C
:10FF5A0020434F4F4C45523A25630D0A0053503AFD
:10FF6A0025352E3166432020004F543A25352E314F
:10FF7A00664320200052543A25352E31664320200C
:10FF8A00004D443A4F464620202020004D443A4333
:10FF9A006F6F6C202020004D443A48656174202020
:10FFAA0020004D443A4175746F20484300433A2576
:10FFBA00336425632000483A2533642563200052C0
:10FFCA003A25342E31660048533A256400494E4694
:10FFDA00004E414E00696E66006E616E0048204315
:10FFEA00004E204E0059204E004E205900592059EB
:05FFFA00006C66000030
:020000040020DA
:08000000FFFFFFFFFFFFFFFF00
:020000040030CA
:0E000000FF011F1FFF8385FF0FC00FE00F40A1
:00000001FF
